{"contracts/ScoreRegistry.sol":{"ScoreRegistry":{"abi":[{"inputs":[],"stateMutability":"nonpayable","type":"constructor"},{"inputs":[{"internalType":"address","name":"owner","type":"address"}],"name":"OwnableInvalidOwner","type":"error"},{"inputs":[{"internalType":"address","name":"account","type":"address"}],"name":"OwnableUnauthorizedAccount","type":"error"},{"inputs":[],"name":"ReentrancyGuardReentrantCall","type":"error"},{"anonymous":false,"inputs":[{"indexed":true,"internalType":"address","name":"admin","type":"address"},{"indexed":true,"internalType":"address","name":"user","type":"address"}],"name":"AdminCleared","type":"event"},{"anonymous":false,"inputs":[{"indexed":true,"internalType":"address","name":"previousOwner","type":"address"},{"indexed":true,"internalType":"address","name":"newOwner","type":"address"}],"name":"OwnershipTransferred","type":"event"},{"anonymous":false,"inputs":[{"indexed":false,"internalType":"bool","name":"isPaused","type":"bool"}],"name":"PauseStateChanged","type":"event"},{"anonymous":false,"inputs":[{"indexed":true,"internalType":"address","name":"user","type":"address"},{"indexed":false,"internalType":"uint256","name":"value","type":"uint256"},{"indexed":false,"internalType":"uint256","name":"timestamp","type":"uint256"},{"indexed":false,"internalType":"bytes32","name":"metadataHash","type":"bytes32"}],"name":"ScoreSubmitted","type":"event"},{"inputs":[],"name":"MAX_SCORE","outputs":[{"internalType":"uint256","name":"","type":"uint256"}],"stateMutability":"view","type":"function"},{"inputs":[{"internalType":"address","name":"user","type":"address"}],"name":"adminClearScore","outputs":[],"stateMutability":"nonpayable","type":"function"},{"inputs":[{"internalType":"address","name":"user","type":"address"}],"name":"latestScoreOf","outputs":[{"internalType":"uint256","name":"value","type":"uint256"},{"internalType":"uint256","name":"timestamp","type":"uint256"},{"internalType":"bytes32","name":"metadataHash","type":"bytes32"}],"stateMutability":"view","type":"function"},{"inputs":[],"name":"myLatestScore","outputs":[{"internalType":"uint256","name":"value","type":"uint256"},{"internalType":"uint256","name":"timestamp","type":"uint256"},{"internalType":"bytes32","name":"metadataHash","type":"bytes32"}],"stateMutability":"view","type":"function"},{"inputs":[],"name":"owner","outputs":[{"internalType":"address","name":"","type":"address"}],"stateMutability":"view","type":"function"},{"inputs":[],"name":"paused","outputs":[{"internalType":"bool","name":"","type":"bool"}],"stateMutability":"view","type":"function"},{"inputs":[],"name":"renounceOwnership","outputs":[],"stateMutability":"nonpayable","type":"function"},{"inputs":[{"internalType":"bool","name":"_paused","type":"bool"}],"name":"setPaused","outputs":[],"stateMutability":"nonpayable","type":"function"},{"inputs":[{"internalType":"uint256","name":"value","type":"uint256"},{"internalType":"bytes32","name":"metadataHash","type":"bytes32"}],"name":"submitScore","outputs":[],"stateMutability":"nonpayable","type":"function"},{"inputs":[],"name":"totalSubmissions","outputs":[{"internalType":"uint256","name":"","type":"uint256"}],"stateMutability":"view","type":"function"},{"inputs":[{"internalType":"address","name":"newOwner","type":"address"}],"name":"transferOwnership","outputs":[],"stateMutability":"nonpayable","type":"function"}],"evm":{"bytecode":{"linkReferences":{},"object":"608060405234801561001057600080fd5b50338061003757604051631e4fbdf760e01b81526000600482015260240160405180910390fd5b6100408161004a565b506001805561009a565b600080546001600160a01b038381166001600160a01b0319831681178455604051919092169283917f8be0079c531659141344cd1fd0a4f28419497f9722a3daafe3b4186f6b6457e09190a35050565b6105e0806100a96000396000f3fe608060405234801561001057600080fd5b50600436106100a95760003560e01c8063715018a611610071578063715018a6146101645780638da5cb5b1461016c5780639822048f14610187578063a3954016146101d8578063def8315a146101e1578063f2fde38b146101f457600080fd5b806316c38b3c146100ae57806327ff6223146100c357806351b08f14146100e05780635c975abb146100f35780636599b00314610110575b600080fd5b6100c16100bc36600461050f565b610207565b005b6100cd620f424081565b6040519081526020015b60405180910390f35b6100c16100ee366004610538565b610256565b6004546101009060ff1681565b60405190151581526020016100d7565b33600090815260026020818152604092839020835160608101855281548082526001830154938201849052919093015492909301829052905b604080519384526020840192909252908201526060016100d7565b6100c16102b2565b6000546040516001600160a01b0390911681526020016100d7565b610149610195366004610538565b6001600160a01b03166000908152600260208181526040928390208351606081018552815480825260018301549382018490529190930154929093018290529192565b6100cd60035481565b6100c16101ef366004610561565b6102c6565b6100c1610202366004610538565b61042a565b61020f610468565b6004805460ff19168215159081179091556040519081527f4543baa938cb97f5073ec206ad35638cdb1f4db8f677d31579b2f6fe7d18c14a9060200160405180910390a150565b61025e610468565b6001600160a01b0381166000818152600260208190526040808320838155600181018490559091018290555133917f2504d0e1264419e932934efb8a898f45113680faff6fc19cfc5dda1829924fb791a350565b6102ba610468565b6102c46000610495565b565b6102ce6104e5565b60045460ff16156103305760405162461bcd60e51b815260206004820152602160248201527f53636f726552656769737472793a207375626d697373696f6e732070617573656044820152601960fa1b60648201526084015b60405180910390fd5b620f424082111561038d5760405162461bcd60e51b815260206004820152602160248201527f53636f726552656769737472793a2073636f7265206f7574206f662072616e676044820152606560f81b6064820152608401610327565b604080516060810182528381524260208083019182528284018581523360009081526002928390529485209351845591516001840155905191015560038054916103d683610583565b90915550506040805183815242602082015290810182905233907f11774431b482d8b33ae4c1173cffa3967485c8c00a1a423a1ccc9e1174c68f199060600160405180910390a261042660018055565b5050565b610432610468565b6001600160a01b03811661045c57604051631e4fbdf760e01b815260006004820152602401610327565b61046581610495565b50565b6000546001600160a01b031633146102c45760405163118cdaa760e01b8152336004820152602401610327565b600080546001600160a01b038381166001600160a01b0319831681178455604051919092169283917f8be0079c531659141344cd1fd0a4f28419497f9722a3daafe3b4186f6b6457e09190a35050565b60026001540361050857604051633ee5aeb560e01b815260040160405180910390fd5b6002600155565b60006020828403121561052157600080fd5b8135801515811461053157600080fd5b9392505050565b60006020828403121561054a57600080fd5b81356001600160a01b038116811461053157600080fd5b6000806040838503121561057457600080fd5b50508035926020909101359150565b6000600182016105a357634e487b7160e01b600052601160045260246000fd5b506001019056fea2646970667358221220358ae07b824cd67b717f91cdfc058aa4f02960aedbbd0485f673227078ec875d64736f6c63430008140033","opcodes":"PUSH1 0x80 PUSH1 0x40 MSTORE CALLVALUE DUP1 ISZERO PUSH2 0x10 JUMPI PUSH1 0x0 DUP1 REVERT JUMPDEST POP CALLER DUP1 PUSH2 0x37 JUMPI PUSH1 0x40 MLOAD PUSH4 0x1E4FBDF7 PUSH1 0xE0 SHL DUP2 MSTORE PUSH1 0x0 PUSH1 0x4 DUP3 ADD MSTORE PUSH1 0x24 ADD PUSH1 0x40 MLOAD DUP1 SWAP2 SUB SWAP1 REVERT JUMPDEST PUSH2 0x40 DUP2 PUSH2 0x4A JUMP JUMPDEST POP PUSH1 0x1 DUP1 SSTORE PUSH2 0x9A JUMP JUMPDEST PUSH1 0x0 DUP1 SLOAD PUSH1 0x1 PUSH1 0x1 PUSH1 0xA0 SHL SUB DUP4 DUP2 AND PUSH1 0x1 PUSH1 0x1 PUSH1 0xA0 SHL SUB NOT DUP4 AND DUP2 OR DUP5 SSTORE PUSH1 0x40 MLOAD SWAP2 SWAP1 SWAP3 AND SWAP3 DUP4 SWAP2 PUSH32 0x8BE0079C531659141344CD1FD0A4F28419497F9722A3DAAFE3B4186F6B6457E0 SWAP2 SWAP1 LOG3 POP POP JUMP JUMPDEST PUSH2 0x5E0 DUP1 PUSH2 0xA9 PUSH1 0x0 CODECOPY PUSH1 0x0 RETURN INVALID PUSH1 0x80 PUSH1 0x40 MSTORE CALLVALUE DUP1 ISZERO PUSH2 0x10 JUMPI PUSH1 0x0 DUP1 REVERT JUMPDEST POP PUSH1 0x4 CALLDATASIZE LT PUSH2 0xA9 JUMPI PUSH1 0x0 CALLDATALOAD PUSH1 0xE0 SHR DUP1 PUSH4 0x715018A6 GT PUSH2 0x71 JUMPI DUP1 PUSH4 0x715018A6 EQ PUSH2 0x164 JUMPI DUP1 PUSH4 0x8DA5CB5B EQ PUSH2 0x16C JUMPI DUP1 PUSH4 0x9822048F EQ PUSH2 0x187 JUMPI DUP1 PUSH4 0xA3954016 EQ PUSH2 0x1D8 JUMPI DUP1 PUSH4 0xDEF8315A EQ PUSH2 0x1E1 JUMPI DUP1 PUSH4 0xF2FDE38B EQ PUSH2 0x1F4 JUMPI PUSH1 0x0 DUP1 REVERT JUMPDEST DUP1 PUSH4 0x16C38B3C EQ PUSH2 0xAE JUMPI DUP1 PUSH4 0x27FF6223 EQ PUSH2 0xC3 JUMPI DUP1 PUSH4 0x51B08F14 EQ PUSH2 0xE0 JUMPI DUP1 PUSH4 0x5C975ABB EQ PUSH2 0xF3 JUMPI DUP1 PUSH4 0x6599B003 EQ PUSH2 0x110 JUMPI JUMPDEST PUSH1 0x0 DUP1 REVERT JUMPDEST PUSH2 0xC1 PUSH2 0xBC CALLDATASIZE PUSH1 0x4 PUSH2 0x50F JUMP JUMPDEST PUSH2 0x207 JUMP JUMPDEST STOP JUMPDEST PUSH2 0xCD PUSH3 0xF4240 DUP2 JUMP JUMPDEST PUSH1 0x40 MLOAD SWAP1 DUP2 MSTORE PUSH1 0x20 ADD JUMPDEST PUSH1 0x40 MLOAD DUP1 SWAP2 SUB SWAP1 RETURN JUMPDEST PUSH2 0xC1 PUSH2 0xEE CALLDATASIZE PUSH1 0x4 PUSH2 0x538 JUMP JUMPDEST PUSH2 0x256 JUMP JUMPDEST PUSH1 0x4 SLOAD PUSH2 0x100 SWAP1 PUSH1 0xFF AND DUP2 JUMP JUMPDEST PUSH1 0x40 MLOAD SWAP1 ISZERO ISZERO DUP2 MSTORE PUSH1 0x20 ADD PUSH2 0xD7 JUMP JUMPDEST CALLER PUSH1 0x0 SWAP1 DUP2 MSTORE PUSH1 0x2 PUSH1 0x20 DUP2 DUP2 MSTORE PUSH1 0x40 SWAP3 DUP4 SWAP1 KECCAK256 DUP4 MLOAD PUSH1 0x60 DUP2 ADD DUP6 MSTORE DUP2 SLOAD DUP1 DUP3 MSTORE PUSH1 0x1 DUP4 ADD SLOAD SWAP4 DUP3 ADD DUP5 SWAP1 MSTORE SWAP2 SWAP1 SWAP4 ADD SLOAD SWAP3 SWAP1 SWAP4 ADD DUP3 SWAP1 MSTORE SWAP1 JUMPDEST PUSH1 0x40 DUP1 MLOAD SWAP4 DUP5 MSTORE PUSH1 0x20 DUP5 ADD SWAP3 SWAP1 SWAP3 MSTORE SWAP1 DUP3 ADD MSTORE PUSH1 0x60 ADD PUSH2 0xD7 JUMP JUMPDEST PUSH2 0xC1 PUSH2 0x2B2 JUMP JUMPDEST PUSH1 0x0 SLOAD PUSH1 0x40 MLOAD PUSH1 0x1 PUSH1 0x1 PUSH1 0xA0 SHL SUB SWAP1 SWAP2 AND DUP2 MSTORE PUSH1 0x20 ADD PUSH2 0xD7 JUMP JUMPDEST PUSH2 0x149 PUSH2 0x195 CALLDATASIZE PUSH1 0x4 PUSH2 0x538 JUMP JUMPDEST PUSH1 0x1 PUSH1 0x1 PUSH1 0xA0 SHL SUB AND PUSH1 0x0 SWAP1 DUP2 MSTORE PUSH1 0x2 PUSH1 0x20 DUP2 DUP2 MSTORE PUSH1 0x40 SWAP3 DUP4 SWAP1 KECCAK256 DUP4 MLOAD PUSH1 0x60 DUP2 ADD DUP6 MSTORE DUP2 SLOAD DUP1 DUP3 MSTORE PUSH1 0x1 DUP4 ADD SLOAD SWAP4 DUP3 ADD DUP5 SWAP1 MSTORE SWAP2 SWAP1 SWAP4 ADD SLOAD SWAP3 SWAP1 SWAP4 ADD DUP3 SWAP1 MSTORE SWAP2 SWAP3 JUMP JUMPDEST PUSH2 0xCD PUSH1 0x3 SLOAD DUP2 JUMP JUMPDEST PUSH2 0xC1 PUSH2 0x1EF CALLDATASIZE PUSH1 0x4 PUSH2 0x561 JUMP JUMPDEST PUSH2 0x2C6 JUMP JUMPDEST PUSH2 0xC1 PUSH2 0x202 CALLDATASIZE PUSH1 0x4 PUSH2 0x538 JUMP JUMPDEST PUSH2 0x42A JUMP JUMPDEST PUSH2 0x20F PUSH2 0x468 JUMP JUMPDEST PUSH1 0x4 DUP1 SLOAD PUSH1 0xFF NOT AND DUP3 ISZERO ISZERO SWAP1 DUP2 OR SWAP1 SWAP2 SSTORE PUSH1 0x40 MLOAD SWAP1 DUP2 MSTORE PUSH32 0x4543BAA938CB97F5073EC206AD35638CDB1F4DB8F677D31579B2F6FE7D18C14A SWAP1 PUSH1 0x20 ADD PUSH1 0x40 MLOAD DUP1 SWAP2 SUB SWAP1 LOG1 POP JUMP JUMPDEST PUSH2 0x25E PUSH2 0x468 JUMP JUMPDEST PUSH1 0x1 PUSH1 0x1 PUSH1 0xA0 SHL SUB DUP2 AND PUSH1 0x0 DUP2 DUP2 MSTORE PUSH1 0x2 PUSH1 0x20 DUP2 SWAP1 MSTORE PUSH1 0x40 DUP1 DUP4 KECCAK256 DUP4 DUP2 SSTORE PUSH1 0x1 DUP2 ADD DUP5 SWAP1 SSTORE SWAP1 SWAP2 ADD DUP3 SWAP1 SSTORE MLOAD CALLER SWAP2 PUSH32 0x2504D0E1264419E932934EFB8A898F45113680FAFF6FC19CFC5DDA1829924FB7 SWAP2 LOG3 POP JUMP JUMPDEST PUSH2 0x2BA PUSH2 0x468 JUMP JUMPDEST PUSH2 0x2C4 PUSH1 0x0 PUSH2 0x495 JUMP JUMPDEST JUMP JUMPDEST PUSH2 0x2CE PUSH2 0x4E5 JUMP JUMPDEST PUSH1 0x4 SLOAD PUSH1 0xFF AND ISZERO PUSH2 0x330 JUMPI PUSH1 0x40 MLOAD PUSH3 0x461BCD PUSH1 0xE5 SHL DUP2 MSTORE PUSH1 0x20 PUSH1 0x4 DUP3 ADD MSTORE PUSH1 0x21 PUSH1 0x24 DUP3 ADD MSTORE PUSH32 0x53636F726552656769737472793A207375626D697373696F6E73207061757365 PUSH1 0x44 DUP3 ADD MSTORE PUSH1 0x19 PUSH1 0xFA SHL PUSH1 0x64 DUP3 ADD MSTORE PUSH1 0x84 ADD JUMPDEST PUSH1 0x40 MLOAD DUP1 SWAP2 SUB SWAP1 REVERT JUMPDEST PUSH3 0xF4240 DUP3 GT ISZERO PUSH2 0x38D JUMPI PUSH1 0x40 MLOAD PUSH3 0x461BCD PUSH1 0xE5 SHL DUP2 MSTORE PUSH1 0x20 PUSH1 0x4 DUP3 ADD MSTORE PUSH1 0x21 PUSH1 0x24 DUP3 ADD MSTORE PUSH32 0x53636F726552656769737472793A2073636F7265206F7574206F662072616E67 PUSH1 0x44 DUP3 ADD MSTORE PUSH1 0x65 PUSH1 0xF8 SHL PUSH1 0x64 DUP3 ADD MSTORE PUSH1 0x84 ADD PUSH2 0x327 JUMP JUMPDEST PUSH1 0x40 DUP1 MLOAD PUSH1 0x60 DUP2 ADD DUP3 MSTORE DUP4 DUP2 MSTORE TIMESTAMP PUSH1 0x20 DUP1 DUP4 ADD SWAP2 DUP3 MSTORE DUP3 DUP5 ADD DUP6 DUP2 MSTORE CALLER PUSH1 0x0 SWAP1 DUP2 MSTORE PUSH1 0x2 SWAP3 DUP4 SWAP1 MSTORE SWAP5 DUP6 KECCAK256 SWAP4 MLOAD DUP5 SSTORE SWAP2 MLOAD PUSH1 0x1 DUP5 ADD SSTORE SWAP1 MLOAD SWAP2 ADD SSTORE PUSH1 0x3 DUP1 SLOAD SWAP2 PUSH2 0x3D6 DUP4 PUSH2 0x583 JUMP JUMPDEST SWAP1 SWAP2 SSTORE POP POP PUSH1 0x40 DUP1 MLOAD DUP4 DUP2 MSTORE TIMESTAMP PUSH1 0x20 DUP3 ADD MSTORE SWAP1 DUP2 ADD DUP3 SWAP1 MSTORE CALLER SWAP1 PUSH32 0x11774431B482D8B33AE4C1173CFFA3967485C8C00A1A423A1CCC9E1174C68F19 SWAP1 PUSH1 0x60 ADD PUSH1 0x40 MLOAD DUP1 SWAP2 SUB SWAP1 LOG2 PUSH2 0x426 PUSH1 0x1 DUP1 SSTORE JUMP JUMPDEST POP POP JUMP JUMPDEST PUSH2 0x432 PUSH2 0x468 JUMP JUMPDEST PUSH1 0x1 PUSH1 0x1 PUSH1 0xA0 SHL SUB DUP2 AND PUSH2 0x45C JUMPI PUSH1 0x40 MLOAD PUSH4 0x1E4FBDF7 PUSH1 0xE0 SHL DUP2 MSTORE PUSH1 0x0 PUSH1 0x4 DUP3 ADD MSTORE PUSH1 0x24 ADD PUSH2 0x327 JUMP JUMPDEST PUSH2 0x465 DUP2 PUSH2 0x495 JUMP JUMPDEST POP JUMP JUMPDEST PUSH1 0x0 SLOAD PUSH1 0x1 PUSH1 0x1 PUSH1 0xA0 SHL SUB AND CALLER EQ PUSH2 0x2C4 JUMPI PUSH1 0x40 MLOAD PUSH4 0x118CDAA7 PUSH1 0xE0 SHL DUP2 MSTORE CALLER PUSH1 0x4 DUP3 ADD MSTORE PUSH1 0x24 ADD PUSH2 0x327 JUMP JUMPDEST PUSH1 0x0 DUP1 SLOAD PUSH1 0x1 PUSH1 0x1 PUSH1 0xA0 SHL SUB DUP4 DUP2 AND PUSH1 0x1 PUSH1 0x1 PUSH1 0xA0 SHL SUB NOT DUP4 AND DUP2 OR DUP5 SSTORE PUSH1 0x40 MLOAD SWAP2 SWAP1 SWAP3 AND SWAP3 DUP4 SWAP2 PUSH32 0x8BE0079C531659141344CD1FD0A4F28419497F9722A3DAAFE3B4186F6B6457E0 SWAP2 SWAP1 LOG3 POP POP JUMP JUMPDEST PUSH1 0x2 PUSH1 0x1 SLOAD SUB PUSH2 0x508 JUMPI PUSH1 0x40 MLOAD PUSH4 0x3EE5AEB5 PUSH1 0xE0 SHL DUP2 MSTORE PUSH1 0x4 ADD PUSH1 0x40 MLOAD DUP1 SWAP2 SUB SWAP1 REVERT JUMPDEST PUSH1 0x2 PUSH1 0x1 SSTORE JUMP JUMPDEST PUSH1 0x0 PUSH1 0x20 DUP3 DUP5 SUB SLT ISZERO PUSH2 0x521 JUMPI PUSH1 0x0 DUP1 REVERT JUMPDEST DUP2 CALLDATALOAD DUP1 ISZERO ISZERO DUP2 EQ PUSH2 0x531 JUMPI PUSH1 0x0 DUP1 REVERT JUMPDEST SWAP4 SWAP3 POP POP POP JUMP JUMPDEST PUSH1 0x0 PUSH1 0x20 DUP3 DUP5 SUB SLT ISZERO PUSH2 0x54A JUMPI PUSH1 0x0 DUP1 REVERT JUMPDEST DUP2 CALLDATALOAD PUSH1 0x1 PUSH1 0x1 PUSH1 0xA0 SHL SUB DUP2 AND DUP2 EQ PUSH2 0x531 JUMPI PUSH1 0x0 DUP1 REVERT JUMPDEST PUSH1 0x0 DUP1 PUSH1 0x40 DUP4 DUP6 SUB SLT ISZERO PUSH2 0x574 JUMPI PUSH1 0x0 DUP1 REVERT JUMPDEST POP POP DUP1 CALLDATALOAD SWAP3 PUSH1 0x20 SWAP1 SWAP2 ADD CALLDATALOAD SWAP2 POP JUMP JUMPDEST PUSH1 0x0 PUSH1 0x1 DUP3 ADD PUSH2 0x5A3 JUMPI PUSH4 0x4E487B71 PUSH1 0xE0 SHL PUSH1 0x0 MSTORE PUSH1 0x11 PUSH1 0x4 MSTORE PUSH1 0x24 PUSH1 0x0 REVERT JUMPDEST POP PUSH1 0x1 ADD SWAP1 JUMP INVALID LOG2 PUSH5 0x6970667358 0x22 SLT KECCAK256 CALLDATALOAD DUP11 0xE0 PUSH28 0x824CD67B717F91CDFC058AA4F02960AEDBBD0485F673227078EC875D PUSH5 0x736F6C6343 STOP ADDMOD EQ STOP CALLER "},"methodIdentifiers":{"MAX_SCORE()":"27ff6223","adminClearScore(address)":"51b08f14","latestScoreOf(address)":"9822048f","myLatestScore()":"6599b003","owner()":"8da5cb5b","paused()":"5c975abb","renounceOwnership()":"715018a6","setPaused(bool)":"16c38b3c","submitScore(uint256,bytes32)":"def8315a","totalSubmissions()":"a3954016","transferOwnership(address)":"f2fde38b"}}}}}